:100000000C9447030C946F030C946F030C946F03D0
:100010000C946F030C946F030C946F030C946F0398
:100020000C946F030C946F030C9477230C94E623C9
:100030000C946F030C946F030C946F030C946F0378
:100040000C946F030C946F030C946F030C946F0368
:100050000C946F030C946F030C946F030C94122692
:100060000C946F030C946F030C946F030C946F0348
:100070000C946F030C946F030C946F030C946F0338
:100080000C946F030C946F030C946F030C946F0328
:100090000C946F030C946F030C946F030C946F0318
:1000A0000C946F030C946F030C946F0305A84CCD54
:1000B000B2D44EB93836A9020C50B9918688083CA2
:1000C000A6AAAA2ABE000000803F0000000024006B
:1000D00027002A002D003000000000002500280025
:1000E0002B002E0031000000000023002600290014
:1000F0002C002F000404040404030405020202027D
:1001000004030202020206060606060604040202B0
:100110000204040408020110408040102040804086
:10012000800802040180402010020110801020404D
:1001300040200000000200090F0000030401000C31
:1001400000000000000000000000000000000000AF
:1001500000080B0002020200000904000001020274
:1001600000000524001001052401010104240206F9
:100170000524060001070581031000400904010061
:10018000020A000000070502024000000705830282
:100190004000000403090412010002EF0201404183
:1001A00023837500010102030141726475696E6F5A
:1001B000204C4C43004646425F535550504F5254DA
:1001C00000050F0992A1028502099F09A009A4094F
:1001D000A509A61500250135004501750195058184
:1001E0000295038103099415002501350045017529
:1001F000019501810209221501252835014528753F
:100200000795018102C00921A1028501092215017A
:100210002528350145287508950191020925A10277
:1002200009260927093009310932093309340940FF
:10023000094109420943092809281501250C3501FE
:10024000450C750895019100C009500954095109E0
:10025000A7150026FF7F350046FF7F66031055FD7A
:10026000751095049102550066000009521500268C
:10027000FF003500461027750895019102095315B6
:10028000012508350145087508950191020955A118
:10029000020501093009311500250175019502910A
:1002A00002C0050F09569501910295059103095762
:1002B000A1020B01000A000B02000A00661400559F
:1002C000FE150026FF00350047A08C0000660000E8
:1002D0007508950291025500660000C0050F095887
:1002E000A1020B01000A000B02000A0026FD7F7527
:1002F0001095029102C0C0095AA102850209221577
:1003000001252835014528750895019102095B09E9
:100310005D16000026102736000046102775109540
:10032000029102095C095E66031055FD27FF7F00FC
:100330000047FF7F000075209102450066000055D0
:1003400000C0095FA1028503092215012528350196
:1003500045287508950191020923150025033500EC
:1003600045037504950191020958A1020B01000A89
:10037000000B02000A00750295029102C016F0D827
:1003800026102736F0D84610270960751095019180
:100390000236F0D8461027096109629502910216CB
:1003A00000002610273600004610270963096475EF
:1003B0001095029102096546102795019102C00926
:1003C0006EA10285040922150125283501452875ED
:1003D00008950191020970160000261027360000CA
:1003E000461027751095019102096F16F0D8261056
:1003F0002736F0D8461027950175109102097166CD
:10040000140055FE1500279F8C00003500479F8C77
:1004100000007510950191020972150027FF7F00F9
:1004200000350047FF7F000066031055FD752095DD
:100430000191026600005500C00973A102850509FB
:1004400022150125283501452875089501910209D5
:100450007016F0D826102736F0D84610277510955C
:10046000019102C00974A1028506092215012528FF
:10047000350145287508950191020975097616F030
:10048000D826102736F0D84610277510950291020D
:10049000C00968A1028507092215012528350145F3
:1004A00028750895019102096C1500261027350062
:1004B00046102775109501910209691581257F3530
:1004C0000046FF007508950C920201C00966A10262
:1004D00085080501093009311581257F350046FF62
:1004E00000750895029102C0050F0977A102850ADF
:1004F0000922150125283501452875089501910225
:100500000978A1020979097A097B15012503750883
:1005100095019100C0097C150026FF00350046FFBB
:10052000009102C00990A102850B0922150125281E
:1005300035014528750895019102C00996A10285EB
:100540000C099709980999099A099B099C15012595
:1005500006750895019100C0097DA102850D097EEF
:10056000150026FF003500461027750895019102F9
:10057000C0096BA102850E09221501252835014508
:1005800028750895019102096D150026FF003500B8
:1005900046FF00750895019102095166031055FD4B
:1005A000150026FF7F350046FF7F751095019102EB
:1005B0005500660000C009ABA10285050925A1020E
:1005C000092609270930093109320933093409405C
:1005D0000941094209430928250C15013501450C3B
:1005E00075089501B100C00501093B150026FF0102
:1005F000350046FF01750A9501B1027506B101C0CB
:10060000050F0989A1028506092225281501350152
:10061000452875089501B102098BA102098C098D45
:10062000098E250315013501450375089501B100B3
:10063000C009AC150027FFFF0000350047FFFF0091
:100640000075109501B100C0097FA10285070980DE
:10065000751095011500350027FFFF000047FFFFCB
:100660000000B102098326FF0046FF0075089501CE
:10067000B10209A909AA75019502150025013500E5
:100680004501B10275069501B103C0C05C26112475
:100690001FBECFEFDAE0DEBFCDBF12E0A0E0B1E0D9
:1006A000E6ECF9E602C005900D92A835B107D9F73E
:1006B00029E0A8E5B2E001C01D92A131B207E1F73F
:1006C00013E0C7E4D3E004C02197FE010E94D532B5
:1006D000C634D107C9F70E94CA280C94E1340C949F
:1006E0000000CF92DF92EF92FF920F931F93CF9370
:1006F000DF93D901E8016A01F9014217530714F0A9
:100700006901FA01882309F440C0CB016C157D050D
:100710000CF4C6019F018E179F070CF49C01A417CF
:10072000B50734F4CF01821B930B9C012C0D3D1DAA
:100730000D2C000CEE08FF08032E000C440B550B8B
:100740002C193D094E095F09AEEFBFEF0E947630CC
:100750009F01FF0F440B550B2C193D094E095F09F2
:100760000E945730DA01C9018F5F9F47A109B10983
:100770008883998382E090E0DF91CF911F910F9160
:10078000FF90EF90DF90CF90089590E080E0F4CF5D
:100790002F923F924F925F926F927F928F929F9291
:1007A000AF92BF92CF92DF92EF92FF920F931F937F
:1007B000CF93DF93CDB7DEB72A970FB6F894DEBF9D
:1007C0000FBECDBF8C016A017B01ECE02E9F800D36
:1007D000911D11249A878987FC01608D718D90E0AD
:1007E00080E00E94382F4B015C01E985FA8566851F
:1007F0007785072E000C880B990B0E943A2F69838E
:100800007A838B839C83E985FA85228833882689BD
:1008100037893E832D838489958998878F830088C3
:10082000F189E02DFA87E987A501940169817A8130
:100830008B819C810E94E9302B013C01A70196012C
:100840000E94423218160CF067C020E030E44CE100
:1008500056E4C301B2010E945B319B01AC01C701A8
:10086000B6010E94E9306B017C01B101330C880BA9
:10087000990B0E943A2F9B01AC01C701B6010E945F
:10088000992F4B015C012D813E81B90190E080E000
:100890000E94382F6B017C01F7FAF094F7F8F0947E
:1008A000A7019601C501B4010E94332F87FF02C042
:1008B00046015701F8016481B7FAB094B7F8B094D3
:1008C00070E090E080E00E943A2F9B01AC01C501EE
:1008D000B4010E94992F20E030E04FE753E40E94DA
:1008E0005B310E94CD312A960FB6F894DEBF0FBE61
:1008F000CDBFDF91CF911F910F91FF90EF90DF90CF
:10090000CF90BF90AF909F908F907F906F905F90AF
:100910004F903F902F90089529813A814B815C81BF
:10092000C501B4010E94EA302B013C01AC019B01DE
:10093000C701B6010E9442321816B4F5EF81F8855E
:10094000BF0190E080E00E94382F4B015C0120E065
:1009500030E44CE156E4C301B2010E945B319B01DB
:10096000AC01C701B6010E94E9306B017C01298509
:100970003A85B901330F880B990B0E943A2F9B01DE
:10098000AC01C701B6010E94992F7B018D83998329
:100990009B01AC01C501B4010E94332F87FD8ACFB2
:1009A0004701AD80B98086CF60E070E0CB019BCF7E
:1009B0004F925F926F927F928F929F92AF92BF926F
:1009C000CF92DF92EF92FF920F931F93CF93DF931B
:1009D0000196EC01CC0FDD1FCC0FDD1FFE01E75EA1
:1009E000FE4FC080D180E280F3808E010850110953
:1009F000F801E75EFE4F80809180A280B380A50160
:100A00009401C701B6010E94332F882371F1CF5C96
:100A1000DE4FF801EF5CFE4F20813181428153812E
:100A2000688179818A819B810E94E9302B013C0198
:100A3000A5019401C701B6010E94E9309B01AC01F8
:100A4000C301B2010E945B31DF91CF911F910F91E1
:100A5000FF90EF90DF90CF90BF90AF909F908F90DE
:100A60007F906F905F904F90089560E070E0CB01B1
:100A7000EBCF2F923F924F925F926F927F928F9225
:100A80009F92AF92BF92CF92DF92EF92FF920F931D
:100A90001F93CF93DF93CDB7DEB760970FB6F8946F
:100AA000DEBF0FBECDBF9E838D834D875E876F8770
:100AB000788BFC01A48121853285B0E00E94DA3078
:100AC0002FEF30E040E050E00E94573069017A019A
:100AD000AD81BE8114960C91149715962D913C9181
:100AE000169714961C91149717962D903C90189772
:100AF000D2964D905C90D397712C612CD0968D90AE
:100B00009C90D197A40170E060E049835A836B8385
:100B10007C83D4968D909C90D597B12CA12C9E96D9
:100B20006D917C91CB01B0E0A0E08D839E83AF837B
:100B3000B88784149504A604B7040CF085C0A02FD0
:100B4000B0E00E94DA302FEF30E040E050E00E9449
:100B5000573029873A874B875C87A70196016985BB
:100B60007A858B859C85261B370B480B590BC50155
:100B7000B4010E949D32A30192010E945730498422
:100B80005A846B847C84240D351D461D571D8D8130
:100B90009E81AF81B88549805A806B807C808419A2
:100BA0009509A609B70988159905AA05BB053CF55D
:100BB0009101A12FB0E00E94DA302FEF30E040E049
:100BC00050E00E94573029013A01A70196012419EB
:100BD0003509460957096D817E818F81988568198D
:100BE00079098A099B090E949D3229813A814B81AA
:100BF0005C810E945730240D351D461D571D6D85A3
:100C00007E858F8598890E949D32A70196010E945A
:100C10005730CA01B90160960FB6F894DEBF0FBE17
:100C2000CDBFDF91CF911F910F91FF90EF90DF909B
:100C3000CF90BF90AF909F908F907F906F905F907C
:100C40004F903F902F900895A7019601A0CF40911B
:100C50001207509113072091100730911107421786
:100C60005307B4F49091E8009570E1F39091E80097
:100C700092FD19C08093F1008091120790911307A3
:100C800001968F739927892B19F48EEF8093E800D2
:100C90008091120790911307019690931307809308
:100CA000120781E0089580E00895EF92FF920F937C
:100CB0001F93CF93DF93F82E192FE62E042F81E098
:100CC000860F880F0E94270683E00E942706CF2DFB
:100CD000D12FEC0EFD2EF11CCE15DF05B9F007FF6C
:100CE00013C0FE0184910E942706182F80E00E9405
:100CF0002706812321968111EFCFDF91CF911F919C
:100D00000F91FF90EF9008958881EDCF81E0F5CFAE
:100D1000DF92EF92FF920F931F93CF93DF93D82E22
:100D20008A01EB017B01E40EF51ECE15DF0559F0BB
:100D3000D7FE12C0FE0184910E94270621968111E0
:100D4000F4CF0FEF1FEFC801DF91CF911F910F91EB
:100D5000FF90EF90DF9008958881EECF2FB7F89441
:100D600087708093E9009091E800892F807295FF49
:100D700004C09091F20080E4891B2FBF08959091E8
:100D80001907992319F13FB7F89487708093E90008
:100D90008091F20090E0481759070CF4CA01282FFF
:100DA000FB0154E6215038F0289A509315074091E2
:100DB000F1004193F7CF009739F02091F200211113
:100DC00003C02BE62093E8003FBF08958FEF9FEF0D
:100DD00008959FB7F89487708093E9008091F2009E
:100DE0009FBF0895615030F02091F100FC012083F5
:100DF0000196F8CF289A84E6809315070895AF925C
:100E0000BF92DF92EF92FF920F931F93CF93DF93E6
:100E10005C018B01EB019BEFD92E2097C1F07E0185
:100E2000C134D1051CF080E4E82EF12C8091E8005B
:100E300082FFFCCFC8018C1B9D0B6E2D8A0D9B1D64
:100E40000E94F206D092E800CE19DF09E6CFC80171
:100E5000DF91CF911F910F91FF90EF90DF90BF90A6
:100E6000AF9008958091080781110DC082E08093B2
:100E7000040784E080930507109207071092060785
:100E800081E08093080784E097E008950F931F9313
:100E9000CF93DF931F92CDB7DEB782E0898342E420
:100EA00050E061E571E080E80E9488060E94320708
:100EB000DC0112960D911C910115110589F0D801E4
:100EC000ED91FC910280F381E02DBE016F5F7F4FB9
:100ED000C801099597FD04C0F80100851185ECCF84
:100EE00089810F90DF91CF911F910F910895CF933A
:100EF000DF931F92CDB7DEB76983DC01ED91FC91E2
:100F00000280F381E02D41E050E0BE016F5F7F4F32
:100F100009950F90DF91CF91089583E08093E900C8
:100F20008091F200882319F08AE38093E800089505
:100F300083E00E94AE0690E00895CF93DF931F9266
:100F4000CDB7DEB7FC018485958597FD08C02FEFEE
:100F50003FEF358724870F90DF91CF91089541E0CF
:100F600050E0BE016F5F7F4F82E00E94BF06019795
:100F700019F4898190E0EFCF8FEF9FEFECCF0F93C3
:100F80001F93CF93DF931F92CDB7DEB78C01FC0187
:100F90008485958597FF0FC041E050E0BE016F5FEB
:100FA0007F4F82E00E94BF06019771F4898190E033
:100FB000F80195878487F801848595850F90DF91E6
:100FC000CF911F910F9108958FEF9FEFF1CFFC010B
:100FD0008485958597FD06C082E00E94E90690E031
:100FE0000196089582E00E94E90690E008958150FC
:100FF0008F3008F047C0E82FF0E0EF5FF74F0C9418
:10100000D5321E082208100816081A08420842089D
:10101000420825082B082F083308390842083D08E4
:10102000809180008F778093800008958091800068
:101030008F7DF9CF80918000877FF5CF84B58F7742
:1010400084BD089584B58F7DFBCF809190008F770C
:10105000809390000895809190008F7DF9CF8091CA
:101060009000877FF5CF8091C0008F778093C0007C
:1010700008958091C0008F7DF9CF8091C200877F55
:101080008093C2000895CF93DF93282F30E0F901B9
:10109000EE5CFE4F8491F901ED5EFE4FD491F901B3
:1010A000EC50FF4FC491CC23A1F081110E94F707AF
:1010B000EC2FF0E0EE0FFF1FEA51FF4FA591B49126
:1010C000EC91ED2381E090E009F480E0DF91CF9195
:1010D000089580E090E0FACF1F93CF93DF93282FFD
:1010E00030E0F901EE5CFE4F8491F901ED5EFE4FB8
:1010F000D491F901EC50FF4FC491CC23A9F0162FE5
:1011000081110E94F707EC2FF0E0EE0FFF1FE8526D
:10111000FF4FA591B4918FB7F894EC91111108C0CD
:10112000D095DE23DC938FBFDF91CF911F9108957F
:10113000DE2BF8CFCF93DF9390E0FC01ED5EFE4F06
:1011400024918C509F4FFC0184918823D1F090E032
:10115000880F991FFC01E653FF4FA591B491FC0144
:10116000E852FF4FC591D491623071F49FB7F89463
:101170003C91822F809583238C93E8812E2B2883AA
:101180009FBFDF91CF9108958FB7F894EC912E2BEC
:101190002C938FBFF6CF1F93CF93DF93182FEB01C4
:1011A00061E00E949A08209739F460E0812FDF9176
:1011B000CF911F910C946C08CF3FD10511F461E0E1
:1011C000F5CFE12FF0E0EE5CFE4FE491E150EF301F
:1011D00008F07FC0F0E0E151F74F0C94D532FE08E3
:1011E00006090B0915091F0969096909690929090E
:1011F00033093D094709540969095C0984B58068C8
:1012000084BDC7BDDF91CF911F91089584B58062E1
:1012100084BDC8BDF7CF8091800080688093800036
:10122000D0938900C0938800EDCF809180008062C8
:1012300080938000D0938B00C0938A00E3CF80918D
:101240008000886080938000D0938D00C0938C00D4
:10125000D9CF80919000806880939000D0939900BE
:10126000C0939800CFCF80919000806280939000CF
:10127000D0939B00C0939A00C5CF80919000886066
:1012800080939000D0939D00C0939C00BBCF809131
:10129000C00080688093C0008091C0008F7B8093E5
:1012A000C000C093CF00AECF8091C0008062809319
:1012B000C000C093D000A6CF8091C2008860809308
:1012C000C2008091C2008B7F8093C200C093D20085
:1012D00099CFC038D1050CF072CF67CF3FB7F894E3
:1012E0008091000790910107A0910207B091030738
:1012F00026B5A89B05C02F3F19F00196A11DB11D71
:101300003FBFBA2FA92F982F8827BC01CD01620FAC
:10131000711D811D911D42E0660F771F881F991F67
:101320004A95D1F708958F929F92AF92BF92CF9234
:10133000DF92EF92FF926B017C010E946E094B01DC
:101340005C01C114D104E104F104B9F00E946E09FA
:10135000681979098A099B09683E734081059105DE
:1013600080F321E0C21AD108E108F10888EE880E66
:1013700083E0981EA11CB11CE4CFFF90EF90DF909A
:10138000CF90BF90AF909F908F9008957F928F9253
:101390009F92AF92BF92CF92DF92EF92FF920F9304
:1013A0001F93CF93DF93C82E8B017A018091190789
:1013B000811110C08FEF9FEFDF91CF911F910F919F
:1013C000FF90EF90DF90CF90BF90AF909F908F9065
:1013D0007F9008958091170780FF05C08091E000FD
:1013E00082608093E000CE2DDF2DD12C8AEFB82EC5
:1013F0008C2D8770982E8C2D8072882E8C2D807469
:10140000782E9AE3A92E209719F4DD2009F452C012
:101410008C2D0E94AE0681110AC0BA94BB2051F2F5
:1014200061E070E080E090E00E949309ECCF8C17BF
:101430001D0611F00CF08C2F9FB7F8949092E900E4
:101440002091E80025FD02C09FBFDDCF282F30E0AE
:10145000C21BD30B882029F08150A0F01092F1001C
:10146000FBCFF801C7FC0AC0815050F04191409376
:10147000F100FACF44914093F10031968150D0F7BA
:10148000020F131FDD2021F0A092E800D12CDCCF49
:101490008091E80085FD07C0A092E800DD24D39488
:1014A000209791F2F3CF209779F6772069F2A092F6
:1014B000E800CACF5D9A84E680931607C7017CCF07
:1014C000CF93DF93EC0180911201882331F083E008
:1014D0000E94C6091816190634F081E090E09B833B
:1014E0008A8380E090E0DF91CF9108952FB7F89440
:1014F0006091FC067091FD068091FE069091FF06BA
:101500002FBF08950F931F930E94760A60934F0791
:1015100070935007809351079093520787E497E0A8
:101520000E949D0797FF1DC00E94760A00914F07F9
:10153000109150072091510730915207601B710B99
:10154000820B930B00914B0710914C0720914D0794
:1015500030914E076017710782079307F8F28FEFFB
:101560009FEF1F910F910895BC0130E020E084E4CB
:10157000DB01A45FBB4F829FF001839FF00D11241C
:10158000E60FF71F91819D7F91834D915C9111979B
:101590004C5B5F4F11965C934E932F5F3F4F2F3004
:1015A000310549F70895FB0128E4208329E42183CC
:1015B00024E42283DC01AD5DBB4F9C919F709F5B57
:1015C00093838D919C9124E0969587952A95E1F7D8
:1015D0008F708F5B848385E00895EF92FF920F9365
:1015E0001F93CF93DF93DB012C91213809F046C084
:1015F00013962C911397223209F040C0FC014281CE
:1016000014962D913C9142171306C1F58C01EF5DA4
:10161000FB4FE080F180D0E0C0E0E114F10441F143
:10162000F701468157816281738180E00E948806BC
:101630008F3F980751F4CFEFDFEFCE01DF91CF91CD
:101640001F910F91FF90EF900895C80FD91FF701D8
:10165000408551856481758180E80E9488068F3FAE
:10166000980749F3C80FD91FF701E080F180D5CF63
:10167000F801EB5DFB4F81E08083DFCFD0E0C0E07D
:10168000DCCFCF93DF93CDB7DEB7A0970FB6F8943A
:10169000DEBF0FBECDBFFC01DB018C918F5F8C9351
:1016A0009E012D5F3F4F8CE0D9011D928A95E9F78D
:1016B00099E0998384E08A8382E08D8383E08E833E
:1016C0009A8791E29B8791E19C8791E09D879F8714
:1016D00022E2288B57E05B8B45E04C8B8E8B20E41D
:1016E00030E0388F2F8B998F5A8F4B8F8D8F3F8F94
:1016F0002E8F98A382818B83DF01AD5DBB4F9C91C0
:1017000011968C91998B8A8B8381982F90689D8BF1
:101710008F5F8C8F40E250E0BE016F5F7F4F80E0B3
:101720000E948806A0960FB6F894DEBF0FBECDBF0C
:10173000DF91CF910895CF93DF938091F3068111CC
:101740008BC092E09093D00281E08093D1022BEE87
:1017500036E03093D3022093D2021092D502109239
:10176000D40226EC31E03093CD022093CC021092CB
:10177000D4061092D5061092D6061092D706109273
:10178000D9061092D8061092DB061092DA06209144
:101790004F0130915001409151012093DC0630936C
:1017A000DD064093DE068093D6029093D306109216
:1017B000EE061092ED061092F0061092EF0680935E
:1017C000F1068093F20681EC8093EB0680EC809327
:1017D000EC060E943207FC0181819091D002482FD3
:1017E000490F5527551F483051059CF5A281B381FB
:1017F000109709F52CEC32E033832283208120936B
:10180000CE028093CF028091D102820F80832091FB
:10181000D202A22FB091D3028A2F821B8917C8F45B
:1018200081813D91C82FD0E0C050DF4F38838F5F5A
:101830008183F2CFD90118962D913C9119972115EA
:101840003105C1F72CEC32E019963C932E93189792
:10185000D5CF81E08093F3068CEC92E0DF91CF91BD
:101860000895FC0101900020E9F73197AF01481B72
:10187000590BBC0187E497E00C94600A8F929F9209
:10188000AF92BF920F931F93CF93DF93CDB7DEB785
:10189000A1970FB6F894DEBF0FBECDBF19A242309C
:1018A00008F44AE08E010F5D1F4F842E912CB12C5D
:1018B000A12CA50194010E94B830E62FB901CA01FC
:1018C000EA30F4F4E05DD801EE938D01232B242B54
:1018D000252B79F790E080E0109719F0CD010E9458
:1018E000310CA1960FB6F894DEBF0FBECDBFDF91CD
:1018F000CF911F910F91BF90AF909F908F900895BF
:10190000E95CE1CF0C94310CCF93DF930E94310C52
:10191000EC0180EE91E00E94310C8C0F9D1FDF9155
:10192000CF910895CF92DF92EF92FF92CF93DF9302
:1019300097FF1BC06B017C016DE287E497E00E947A
:101940007707EC0166277727CB016C197D098E0993
:101950009F094AE00E943E0C8C0F9D1FDF91CF91A2
:10196000FF90EF90DF90CF9008954AE0DF91CF9104
:10197000FF90EF90DF90CF900C943E0C4F925F92CF
:101980006F927F928F929F92AF92BF92CF92DF928F
:10199000EF92FF920F931F93CF936B017C01742EF4
:1019A000AC019B010E944F32882399F083EE91E0B5
:1019B000CF911F910F91FF90EF90DF90CF90BF904C
:1019C000AF909F908F907F906F905F904F900C940E
:1019D000310C46015701E894B7F82FEF3FEF4FE77E
:1019E0005FE7C501B4010E944F3281110DC02FEF96
:1019F0003FEF4FE75FE7C501B4010E94332F181690
:101A00001CF487EE91E0D4CF2FEF3FEF4FE75FE478
:101A1000C701B6010E94423218161CF48BEE91E009
:101A2000C7CF2FEF3FEF4FE75FECC701B6010E9432
:101A3000332F87FDF3CF20E030E0A901C701B601C5
:101A40000E94332F10E000E087FF0AC06DE287E4B8
:101A500097E00E9477078C01F7FAF094F7F8F0947A
:101A6000C0E060E070E080E09FE37C1641F020E0A1
:101A700030E040E251E40E945B31CF5FF6CFA70136
:101A800096010E94EA302B013C010E94D4314B01A7
:101A90005C014AE00E943E0C7C01E00EF11ECC236A
:101AA000C1F1C501B4010E94382F9B01AC01C301F3
:101AB000B2010E94E9304B015C016EE287E497E0DD
:101AC0000E947707E80EF91EC15018F120E030E0BF
:101AD00040E251E4C501B4010E94992F2B013C0161
:101AE0000E94D4314B01B12CA12C4AE0C501B401B4
:101AF0000E943E0CE80EF91EC501B4010E94382F69
:101B00009B01AC01C301B2010E94E9304B015C01B1
:101B1000DBCFC701CF911F910F91FF90EF90DF9026
:101B2000CF90BF90AF909F908F907F906F905F907D
:101B30004F9008958F929F92AF92BF92CF92DF9273
:101B4000EF92FF920F931F93CF93DF93CDB7DEB742
:101B5000ADB6BEB680919A082DB73EB7281B3109A5
:101B60000FB6F8943EBF0FBE2DBF8DB79EB701963E
:101B70006C01E0907508F12C8091710890917208C9
:101B8000D601FC019F01281B390B2E153F051CF4C3
:101B900021912D93F7CF80917608882359F1809178
:101BA0006D0890916E0828E097FD09C068E671E025
:101BB0000E94C1326DE270E00E94C132262F8091F6
:101BC0006F089091700868E097FD08C068E671E0C2
:101BD0000E94C1326DE270E00E94C132F601EE0D4A
:101BE000FF1D90E1699FB0011124262B2083F7018E
:101BF00031967F0186010E0D1F1D20917B083091CB
:101C00007C084091790850917A0860915D08709144
:101C10005E088091770881700E947103E80EF91EBA
:101C200086010E0D1F1D20917F0830918008409184
:101C30007D0850917E0860915F08709160088091E6
:101C40007708869581700E947103E80EF91E86015F
:101C50000E0D1F1D2091830830918408409181084A
:101C600050918208609161087091620880917708B4
:101C700082FB882780F90E947103E80EF91E860115
:101C80000E0D1F1D2091870830918808409185080E
:101C9000509186086091630870916408809177087C
:101CA00083FB882780F90E947103E80EF91E8601E4
:101CB0000E0D1F1D20918B0830918C0840918908D2
:101CC00050918A0860916508709166088091770844
:101CD000829581700E947103E80EF91E86010E0D37
:101CE0001F1D20918F083091900840918D085091D0
:101CF0008E0860916708709168088091770885FB6D
:101D0000882780F90E947103E80EF91E86010E0DE6
:101D10001F1D209193083091940840919108509193
:101D2000920860916B0870916C08809178088170BE
:101D30000E9471038E0D9F1D8601080F191F2091AF
:101D400097083091980840919508509196086091B5
:101D5000690870916A0880917808869581700E9460
:101D600071030E949B0B4C0140919A088091990845
:101D700050E07A01FFEFEF1AFF0A2DB73EB72E1998
:101D80003F090FB6F8943EBF0FBE2DBF0DB71EB76B
:101D90000F5F1F4FEDB7FEB78183B601C8010196F3
:101DA0000E94BD34F4018381A701B80180640E94C0
:101DB000C6090FB6F894BEBE0FBEADBEDF91CF917F
:101DC0001F910F91FF90EF90DF90CF90BF90AF9059
:101DD0009F908F90089590935E0880935D08809106
:101DE000730881110C949A0D089590936008809364
:101DF0005F088091730881110C949A0D0895CF9318
:101E0000DF93EB01FC016230710504F5648570E03D
:101E100090E080E00E943A2F20E030E044EB53E471
:101E20000E94992F20E030E04FE753E40E945B319D
:101E300025E33AEF4EE85CE30E94992FCD2B41F465
:101E40000E9447329058DF91CF9108956585DFCF8A
:101E5000DF91CF910C945631FC01808191810097E4
:101E600011F00C94F72E60E070E0CB010895CF9351
:101E7000DF93FC0124813581232B79F0C081D1814E
:101E8000062E000C770BCE010E94C634009729F075
:101E90008C1B9D0BDF91CF9108958FEF9FEFFACFB1
:101EA000FC0124813581232B39F421E0FB01808161
:101EB000882349F020E007C0808191810E94D134BD
:101EC00021E0892BB9F7822F08950F931F93CF93A9
:101ED000DF93EC0188819981009759F02A813B8139
:101EE0002617370730F081E0DF91CF911F910F91D6
:101EF00008958B016F5F7F4F0E940034009759F067
:101F0000998388831B830A832C813D81232B59F776
:101F1000FC011082E8CF80E0E7CFCF93DF93EC01A4
:101F200088819981009711F00E9477331982188275
:101F30001D821C821B821A82DF91CF910895CF935C
:101F4000DF93EC0170E060E00E94650F811105C035
:101F5000CE01DF91CF910C948D0F1D821C8262EE19
:101F600071E088819981DF91CF910C94DA349F924E
:101F7000AF92BF92CF92DF92EF92FF920F931F9397
:101F8000CF93DF93EC016B015A01790124173507D8
:101F900020F48B2D5901E42EF82E198218821B8211
:101FA0001A821D821C82CE010E949F0FD6011496B8
:101FB0000D911C91A016B10658F5E016F10608F433
:101FC0008701D601ED91FC911197E00FF11F9080F0
:101FD0001082ED90FC90EA0CFB1CE114F10471F00E
:101FE000F70101900020E9F731975F01AE18BF08B3
:101FF000B501CE010E94650F811117C0CE010E946C
:102000008D0FF60180819181080F191FD8019C92D4
:10201000CE01DF91CF911F910F91FF90EF90DF9054
:10202000CF90BF90AF909F900895BD82AC82B701D2
:10203000888199810E94DA34E4CFFC01808191810A
:10204000009711F00C94773308950F931F93CF935B
:10205000DF93CDB7DEB72A970FB6F894DEBF0FBE79
:10206000CDBFDC0112964C911297FB012481358182
:102070004217130609F048C08C0191818081813A92
:1020800009F044C09130E9F58381813049F4BD0104
:10209000605F7B4F43E050E080E40E94880615C0FB
:1020A000833099F492819630E1F48FEC97E00197B8
:1020B000F1F700C000000D5E1B4F45E050E0B80195
:1020C00080E40E948806D8011C9281E02A960FB60F
:1020D000F894DEBF0FBECDBFDF91CF911F910F915E
:1020E0000895973091F799832FEF3FEF3B832A8331
:1020F0009EE09C838D8345E050E0BE016F5F7F4F83
:10210000CBCF81E0933011F380E0E0CF8132E1F773
:102110009B3031F48281FD01EB5DFB4F8083D5CF95
:102120009A3029F48281FD01EA5DFB4FF7CF9930A7
:1021300059F78381833049F686819781892B39F459
:1021400070E060E0CE0101960E94FF06BECF828162
:10215000853009F0BACF64E070E0CE0101960E94AC
:10216000FF0686E0F801ED5EFB4F8083F801828573
:102170008E3089F1828591E0980F928724E4D8010E
:102180001A969C91F801299FE00DF11D1124938569
:10219000992341F0F80192859E3020F492859F5F4B
:1021A0009287EDCF91E0F80124E4829FE00DF11DCC
:1021B00011249387F801EE5EFB4F8083F801EC5EFB
:1021C000FB4F80838081D801AB5EBB4F811105C07E
:1021D00082E08C937ACF80E0F1CF21E02C93808154
:1021E00034E4839FC0011124F801E80FF91F3B96E6
:1021F000DF011D923A95E9F7800F911FFC012387BB
:10220000F801EA5EFB4F80819181845491099183AA
:1022100080835BCF2F923F924F925F926F927F921B
:102220008F929F92AF92BF92CF92DF92EF92FF92E6
:102230000F931F93CF93DF93CDB7DEB7C758D10964
:102240000FB6F894DEBF0FBECDBFEC968FAFEC9704
:1022500009E110E020E030E00093A4021093A50211
:102260002093A6023093A7024AE050E060E070E0BD
:1022700040939C0250939D0260939E0270939F0234
:1022800086E990E0A0E0B0E08093940290939502FC
:10229000A0939602B09397020093C4021093C502D4
:1022A0002093C6023093C7024093BC025093BD02F4
:1022B0006093BE027093BF028093B4029093B50204
:1022C000A093B602B093B7028FEF9FE7A0E0B0E013
:1022D00080938C0290938D02A0938E02B0938F0214
:1022E0008093AC029093AD02A093AE02B093AF0284
:1022F000C0903507D0903607C6010D2C000CAA0BF4
:10230000BB0B8093900290939102A0939202B093A2
:102310009302E0903707F0903807C7010F2C000CAC
:10232000AA0BBB0B8093B0029093B102A093B202B0
:10233000B093B3020E94760A20911A0730911B07CE
:10234000AB01421B530B6F965FAF4EAF6F97E0919F
:102350008602F09187022091840230918502141642
:1023600015060CF0DEC0EC965FADEC97552309F432
:10237000D8C060931A0770931B0780931C07909333
:102380001D0780918A0290918B02D601A81BB90B80
:10239000CD016F966EAD7FAD6F970E94C1325B012C
:1023A0008091880290918902A701481B590BCA01AC
:1023B0006F966EAD7FAD6F970E94C1328B01B501F4
:1023C0006E1B7F0B4AE0469FC001479F900D112472
:1023D0006F966EAD7FAD6F970E94C132FB01C80151
:1023E000821B930B9C01429FC001439F900D1124BF
:1023F0006F966EAD7FAD6F970E94C13225010B2C99
:10240000000C660877084092A8025092A9026092D8
:10241000AA027092AB02C801012E000CAA0BBB0BE2
:102420008093C8029093C902A093CA02B093CB02D2
:102430009F010F2E000C440B550B2093A0023093EC
:10244000A1024093A2025093A3029B01072E000C0D
:10245000440B550B2093C0023093C1024093C2023B
:102460005093C302409298025092990260929A024D
:1024700070929B028093B8029093B902A093BA0223
:10248000B093BB02D0928B02C0928A02F092890272
:10249000E0928802B0928702A09286021093850291
:1024A00000938402F0938302E0938202709381028E
:1024B000609380028CE892E090930C0980930B0962
:1024C0000E949B0B8C01DC0113968C918F5F0E9404
:1024D000E906882309F4A9C0F801838140E450E0AB
:1024E000BE016F5F7F4F8F5F0E94BF069801265F1E
:1024F0003F4F9A81E981E150ED3008F096C0F0E05D
:10250000EC57FD4E0C94D532DA1269148014B714CE
:10251000CE14D914151315131513E8145E1585156B
:10252000C415AF01FF0F660B770B4093A8025093C1
:10253000A9026093AA027093AB02C901330FAA0BE0
:10254000BB0B8093C8029093C902A093CA02B093B8
:10255000CB020091820210918302012E000C220B0B
:10256000330B0093A0021093A1022093A202309398
:10257000A3020091800210918102012E000C220B17
:10258000330B0093C0021093C1022093C202309318
:10259000C302409398025093990260939A027093F9
:1025A0009B028093B8029093B902A093BA02B093B1
:1025B000BB0280CF2C813D81492F50E0F80164E4BB
:1025C000969FE00DF11D112432AF21AF8F85878BCF
:1025D0008889808F8B8184878C8587878E85868B81
:1025E0006A857B85DF01AD5BBF4F11967C936E934F
:1025F000E35BFF4F80818F3FC1F08081882309F426
:1026000066C18081260F371F829FB001839F700DA6
:10261000112484E4849FF001859FF00D1124E00FC4
:10262000F11FEF5BFF4F718360831092780210926D
:10263000790210927A0210927B0210927C02109220
:102640007D0210927E0210927F020E949B0B895F96
:102650009B4FDC018C91823009F09BC200910B09E9
:1026600010910C09F80164817581868197810E941F
:102670003A2F6B017C01D8016D917D918D919C91D8
:102680000E943A2F9B01AC01C701B6010E945B3149
:102690006B017C0120E030E040E85FE30E944232C1
:1026A000181684F020E030E040E85FEBC701B60187
:1026B0000E94332F87FF06C0C12CD12CF0E8EF2EEB
:1026C000FFEBFF2E20E030E44CE156ECC701B601F1
:1026D0000E94992F2091CF083091D0084091D108C5
:1026E0005091D2080E94992F0E94CD3160937802B8
:1026F0007093790280937A0290937B02F80164A12F
:1027000075A186A197A10E943A2F6B017C01D80187
:1027100090966D917D918D919C9193970E943A2F07
:102720009B01AC01C701B6010E945B316B017C01CA
:1027300020E030E040E85FE30E944232181684F067
:1027400020E030E040E85FEBC701B6010E94332F84
:1027500087FF06C0C12CD12CE0E8EE2EEFEBFE2E59
:1027600020E030E44CE156ECC701B6010E94992FFD
:1027700020910709309108094091090950910A09EF
:102780000E94992F0E94CD3160937C0270937D024C
:1027900080937E0290937F0260917802709179021B
:1027A00080917A0290917B020E943A2F20919B089F
:1027B00030919C0840919D0850919E080E94992F4D
:1027C0000E94CD314B015C01B1E18B16B7E29B0653
:1027D000A104B10434F070E1872E77E2972EA12C8A
:1027E000B12CE0EF8E16E8ED9E06EFEFAE06BE06CA
:1027F0003CF460EF862E68ED962EAA24AA94BA2C9B
:102800008092780290927902A0927A02B0927B0232
:1028100060917C0270917D0280917E0290917F0296
:102820000E943A2F2091D3083091D4084091D508C6
:102830005091D6080E94992F0E94CD316B017C01E6
:10284000F1E1CF16F7E2DF06E104F10434F050E1E4
:10285000C52E57E2D52EE12CF12C20EFC21628ED23
:10286000D2062FEFE206F2063CF440EFC42E48ED0C
:10287000D42EEE24EA94FE2CC0927C02D0927D02EB
:10288000E0927E02F0927F026F964EAD5FAD6F9741
:102890001416150614F40C94D520C957DF4F0FB643
:1028A000F894DEBF0FBECDBFDF91CF911F910F9186
:1028B000FF90EF90DF90CF90BF90AF909F908F9060
:1028C0007F906F905F904F903F902F90089581E0A0
:1028D00099CE2B813C81F80184E4989FE00DF11D95
:1028E0001124318B208B8D819E81938B828B8F81E4
:1028F000988596AF85AF89859A8594AF83AF95CE3D
:10290000492F50E08B81F801A4E49A9FE00DF11D5E
:102910001124E25BFF4F9081891718F091E0980F26
:1029200090832C813D8194E4949FF001959FF00D5C
:102930001124BCE08B9FE00DF11D1124E00FF11F6D
:10294000328F218F8E819F81948F838F8885998587
:10295000968F858F8A859B8590A3878F8C859D8593
:1029600092A381A38E859F8594A383A35ECE2B81A2
:102970003C81F80144E4949FE00DF11D1124358B56
:10298000248B8D819E81968785878F81988592ABD8
:1029900081AB89859A8590AF87AB47CE2B813C81EF
:1029A000F80154E4959FE00DF11D1124358B248B23
:1029B0003CCE2B813C81F80164E4969FE00DF11D33
:1029C000112434AB23AB8D819E8196AB85AB2DCE8C
:1029D0008C81A4E4EA2E492F50E0F801E99EE00D35
:1029E000F11D1124DF01A35BBF4F8C93FB80A1E09D
:1029F000FA123EC08F3F39F5EF5BFF4F2FEF3FE7F5
:102A0000318320839F3008F010CE84E4849FF0014E
:102A1000859FF00D11240E0F1F1F82E0F8018387A0
:102A2000FF96118210820E94760A4B015C01F80128
:102A3000EB5BFF4F608391828283B38214821582A5
:102A400016821782F2CD8823E9F2DF01AD5BBF4F1A
:102A50002D913C9161AD72AD260F371F829FB00161
:102A6000839F700D1124EF5BFF4F71836083CACF8A
:102A700042E0F41210C0C9010E94B40A8A818F306A
:102A800008F0D3CDE89E000D111D1124D8011B962E
:102A9000FC92F801C5CFB3E0FB12C7CD9F3008F020
:102AA000C4CD83858D7F8387F801EA5EFB4F8081EB
:102AB00091818C5B9F4F91838083B7CD9F3F89F439
:102AC00081E0F80182873B968CEF93E0DF019C0167
:102AD0001D9221503040E1F7E55FFB4F88EB93E01A
:102AE000EACF9F3008F0A1CDF80134E4939FE00DC8
:102AF000F11D11241386D8011A968C911A979817F4
:102B000008F093CD1A969C9390CDF801EF5EFB4FA1
:102B1000913031F1F801EF5EFB4F923041F093308C
:102B200051F4C9010E94B40AF801E95FFB4F8081AA
:102B30008D7F80837ACD9430B1F481E0F801828773
:102B40003B968CEF93E0DF019C011D9221503040B9
:102B5000E1F7E55FFB4F88EB93E0918380833F973C
:102B600080818260E6CF953031F4F801E95FFB4F58
:102B700080818160DECF963009F057CDF801E95FA2
:102B8000FB4F80818E7FD5CFF801E25EFB4F9083B3
:102B90004CCD69961FAE1EAE6997CE010196239665
:102BA0009FAF8EAF23970E949B0B6C010E94760A09
:102BB000E4E46996AEADBFAD6997EA9F9001EB9FE3
:102BC000300D11242C0D3D1DF901EB5BFF4F4080B2
:102BD00051806280738084809580A680B780AB012D
:102BE00044195509D901DF9611965C934E93349799
:102BF000808191818F3F9F4739F02D913C91808159
:102C0000918128173907F8F464E469964EAD5FADF9
:102C10006997649FF001659FF00D1124EC0DFD1D77
:102C20009F01215C3F4FD9018D919C9161AD72ADA7
:102C3000ED5BFF4F40815181640F751F0E94AD32E3
:102C4000F9019183808344E469962EAD3FAD699785
:102C5000429F8001439F100D1124F601E00FF11FE8
:102C6000DF01AD5BBF4F2D913C91119714978D9172
:102C70009C911197821B930B11969C938E93838545
:102C8000823009F07DC28D919C9111972D913C91DC
:102C900081AD92AD8217930708F472C20E949B0B1C
:102CA000895F9B4FDC018C9181116AC2055F1F4FC8
:102CB0001601200E311E2396EEADFFAD239720E2C4
:102CC00011922A95E9F769968EAD9FAD69970196A5
:102CD00034E4389FF001399FF00D1124EC0DFD1DF7
:102CE0008285813009F0E3C0F12CE12C10E000E096
:102CF000E0910B09F0910C09EE0DFF1D64817581C7
:102D0000868197810E943A2F2B966CAF7DAF8EAF54
:102D10009FAF2B97B801C1010E94FF0E2B013C0110
:102D20006D817E818F8198850E943A2F4B015C01D5
:102D3000A30192012B966CAD7DAD8EAD9FAD2B970F
:102D40000E94992F9B01AC01C501B4010E94EA3099
:102D50000E94CD316D837E838F839887E0910B092C
:102D6000F0910C09EE0DFF1D6485758586859785AC
:102D70000E943A2F2B966CAF7DAF8EAF9FAF2B97F3
:102D8000B801C1010E94FF0E2B013C016D857E85BB
:102D90008F8598890E943A2F4B015C01A301920113
:102DA0002B966CAD7DAD8EAD9FAD2B970E94992F6C
:102DB0009B01AC01C501B4010E94EA300E94CD31F3
:102DC0006D877E878F87988BE0910B09F0910C09B6
:102DD000EE0DFF1D64897589868997890E943A2FB7
:102DE0002B966CAF7DAF8EAF9FAF2B97B801C10113
:102DF0000E94FF0E2B013C016D897E898F89988D81
:102E00000E943A2F4B015C01A30192012B966CADFD
:102E10007DAD8EAD9FAD2B970E94992F9B01AC018C
:102E2000C501B4010E94EA300E94CD316D8B7E8BCA
:102E30008F8B988FE0910B09F0910C09EE0DFF1D1F
:102E4000648D758D868D978D0E943A2F2B966CAF71
:102E50007DAF8EAF9FAF2B97B801C1010E94FF0ECF
:102E60002B013C016D8D7E8D8F8D98A10E943A2F94
:102E70004B015C01A30192012B966CAD7DAD8EAD33
:102E80009FAD2B970E94992F9B01AC01C501B40106
:102E90000E94EA300E94CD316D8F7E8F8F8F98A374
:102EA00040E2E40EF11C0130110509F0E5C088E7AD
:102EB00092E0AD969FAF8EAFAD97ADE5B8E063966B
:102EC000BFAFAEAF639761961FAE1EAE619724E4AD
:102ED0006996EEADFFAD69972E9FC0012F9F900DB3
:102EE0001124A601480F591F29965FAF4EAF2997AD
:102EF0004A5E5F4FEB965FAF4EAFEB979F012F5F40
:102F00003F4F54E4529FC001539F900D1124C80EAF
:102F1000D91EC6010A96EE969FAF8EAFEE97299600
:102F2000AEADBFAD29971C96CA57DF4FB983A883B2
:102F3000C658D0402996EEADFFAD29973D96A5968F
:102F4000FFAFEEAFA59729962EAD3FAD29972C5E2A
:102F50003F4FA1963FAF2EAFA19729964EAD5FADE3
:102F60002997415C5F4FA3965FAF4EAFA397299619
:102F70008EAD9FAD2997C196A7969FAF8EAFA797AD
:102F8000EB96EEADFFADEB978081843061F08081F0
:102F900090E060960FAC609702C0959587950A9473
:102FA000E2F780FFD2C0EE96AEADBFADEE978C914A
:102FB000FE013196813079F0E0910B09F0910C0916
:102FC00061968EAD9FAD619735E0880F991F3A9558
:102FD000E1F7E80FF91F2481358146815781279653
:102FE0002CAF3DAF4EAF5FAF2797448455846684C6
:102FF000778484889588A688B788C48CD58CE68C1D
:10300000F78CEB96AEADBFADEB978C91843009F0A9
:103010003DC0EE96EEADFFADEE978081823008F4B4
:1030200035C060961FAD609720E030E040E85FE378
:103030002F962CAF3DAF4EAF5FAF2F97CA57DF4FE4
:10304000A881B981C658D040EC91E15060E070E0B1
:10305000CB01EB3008F069C0F0E0EF5CF74E0C9468
:10306000D5325518CD181A197919F319C41A991BA4
:103070004A1CA41C751F6D2001E010E039CEA1E0B0
:10308000B0E06196BFAFAEAF61977ACF61966EAD9B
:103090007FAD6197C1010E94FF0E2F966CAF7DAF8F
:1030A0008EAF9FAF2F9710E0C9CFA196EEADFFADC9
:1030B000A197608171812996AEADBFAD29971F960A
:1030C0001C91072E000C880B990B0E943A2F6B0164
:1030D0007C01612F70E090E080E00E943A2F9B011C
:1030E000AC01C701B6010E94992F20E030E04FE704
:1030F00053E40E945B310E94CD310E943A2F6396C7
:10310000EEADFFAD6397EE5BFF4F208131814281D1
:1031100053810E94992F2F962CAD3DAD4EAD5FADE2
:103120002F970E94992F0E94CD31AD96EEADFFAD45
:10313000AD970081118122813381060F171F281F4F
:10314000391F0083118322833383AD96EEADFFAD2B
:10315000AD973496AD96FFAFEEAFAD9763962EADBB
:103160003FAD6397285C3F4F63963FAF2EAF6397A9
:1031700061964EAD5FAD61974130510509F07FCF4B
:1031800069968EAD9FAD6997019669969FAF8EAF98
:1031900069970E9709F007CDFFCA2996EEADFFADEE
:1031A000299763A874A8A396AEADBFADA3976D9100
:1031B0007C91E1ACF2AC05A916A9C3A8D4A890E013
:1031C00080E00E94382F4B015C01B70190E080E065
:1031D0000E94382F9B01AC01C501B4010E945B31F4
:1031E0004B015C01B8016C197D09072E000C880B9E
:1031F000990B0E943A2F9B01AC01C501B4010E94BA
:10320000992F6B017C01B301770C880B990B0E94FD
:103210003A2F9B01AC01C701B6010E94EA300E941F
:10322000CD310E943A2F6396EEADFFAD6397EA5B16
:10323000FF4F6BCFA596EEADFFADA597C080D180B7
:10324000A196AEADBFADA1978D909C90092C000CBE
:10325000AA08BB08A396EEADFFADA397008111812C
:10326000A796AEADBFADA7972D913C912996EEAD37
:10327000FFAD2997A7A9B0AD2D01712C612CCC0C05
:10328000DD1C0D2C000CEE08FF080E94DA3020EA4D
:103290003CE840E050E00E94B830CA01B901600F3C
:1032A000711F811D911DA30192010E94B830769477
:1032B000679457944794461657066806790690F027
:1032C000B501A4014C0D5D1D6E1D7F1DC1010E9445
:1032D00039050E943A2F6396EEADFFAD6397E65B2A
:1032E000FF4F13CFB701A601481959096A097B0995
:1032F000EDCFA596AEADBFADA5976D907C90A19694
:10330000EEADFFADA19700811181A796AEADBFAD27
:10331000A797CD90DC90A396EEADFFADA39760810B
:1033200071812996AEADBFAD2997D796ED90FC90EF
:1033300090E080E00E94382F4B015C01B70190E0E3
:1033400080E00E94382F9B01AC01C501B4010E94AE
:103350005B314B015C01B60190E080E00E94382FA8
:1033600020E030EA4CE057E40E945B319B01AC0165
:10337000C501B4010E94EA309B01AC010E94EA3011
:103380002BED3FE049E450E40E94992F0E94473220
:103390006B017C01B801110F880B990B0E943A2F29
:1033A000A70196010E94992F6B017C01B301660F62
:1033B000771F072E000C880B990B0E943A2FA7014C
:1033C00096010E94EA300E94CD31AB01BC01C101DF
:1033D0000E9439050E943A2F6396EEADFFAD6397C8
:1033E000E25BFF4F92CEA596EEADFFADA597608153
:1033F0007181660F771F072E000C880B990B0E94B6
:103400003A2F2B013C01A196AEADBFADA1976D91B6
:103410007C91072E000C880B990B0E943A2F67961F
:103420006CAF7DAF8EAF9FAF6797A396EEADFFAD4C
:10343000A3970190F081E02D6B96FFAFEEAF6B97F5
:10344000A796AEADBFADA797ED90FC902996EEADD7
:10345000FFAD299707A910AD67A970AD90E080E096
:103460000E94382F4B015C0167962CAD3DAD4EADEF
:103470005FAD6797C301B2010E94E93027966CAF38
:103480007DAF8EAF9FAF27979701D8010E94DA30AA
:1034900020EA3CE840E050E00E94B830CA01B9019F
:1034A0000E94382F6B017C016B962EAD3FAD6B9760
:1034B000B90190E080E00E94382F9B01AC01C70168
:1034C000B6010E94EA300E94D431980150E040E0F9
:1034D0000E94B8300E94382F6B017C0167962CAD9A
:1034E0003DAD4EAD5FAD6797C301B2010E94EA30BA
:1034F00027962CAD3DAD4EAD5FAD27970E94E930CC
:103500009B01AC010E94EA30A50194010E945B314D
:103510002B013C0120E030E040E05FE3C501B40155
:103520000E94992F9B01AC01C701B6010E94423253
:1035300018162CF5A7019601C501B4010E94E930C7
:10354000A30192010E94992F9B01AC0127966CADBB
:103550007DAD8EAD9FAD27970E94EA3090580E94B6
:10356000CD31AB01BC01C1010E9439050E943A2F47
:103570006396EEADFFAD6397EE5AFF4FC6CDA30144
:103580009201C701B601DECFA596AEADBFADA5973E
:103590006D917C91660F771F072E000C880B990B9D
:1035A0000E943A2F6B017C01A196EEADFFADA19771
:1035B00060817181072E000C880B990B0E943A2FB5
:1035C00027966CAF7DAF8EAF9FAF2797A396AEAD1A
:1035D000BFADA3970D90BC91A02D6B96BFAFAEAFC2
:1035E0006B97A796EEADFFADA79700811181299645
:1035F000AEADBFAD2997D796AD90BC90D897D79672
:10360000ED91FC91A996FFAFEEAFA9979B01AC019C
:10361000C701B6010E94E9302B013C01950150E041
:1036200040E067962CAF3DAF4EAF5FAF6797CA01E2
:10363000B5010E94382F4B015C01B80190E080E099
:103640000E94382FA50194010E94992F20E030EAB2
:103650004CE057E40E945B310E94CD310E943A2F2A
:10366000E1966CAF7DAF8EAF9FAFE1976B964EAD9D
:103670005FAD6B97BA0190E080E00E94382F9B010C
:10368000AC01E1966CAD7DAD8EAD9FADE1970E9432
:10369000EA300E94D43167962CAD3DAD4EAD5FADA2
:1036A00067970E94B8300E94382F9B01AC01C5017A
:1036B000B4010E94E9304B015C0127962CAD3DAD71
:1036C0004EAD5FAD2797C701B6010E94EA30A30156
:1036D00092010E94E9306B017C01A996AEADBFADAD
:1036E000A997BD0190E080E00E94382F9B01AC01BA
:1036F000C701B6010E945B319B01AC01C501B40159
:103700000E94992F9B01AC01C301B2010E94EA30D3
:1037100090580E94CD31AB01BC01C1010E94390516
:103720000E943A2F6396EEADFFAD6397EA5AFF4FC2
:10373000ECCCA596EEADFFADA59760817181660FCB
:10374000771F072E000C880B990B0E943A2F6B01F4
:103750007C01A196AEADBFADA1976D917C91072E76
:10376000000C880B990B0E943A2F4B015C01A39629
:10377000EEADFFADA3970190F081E02D6596FFAF10
:10378000EEAF6597A796AEADBFADA7976D907C9055
:103790002996EEADFFAD299707A910AD27A930AD49
:1037A0006B963FAF2EAF6B97AC019B01C701B60183
:1037B0000E94E93027966CAF7DAF8EAF9FAF279701
:1037C0009301D8010E94DA3020EA3CE840E050E062
:1037D0000E94B830CA01B9010E943A2F2B013C0166
:1037E00065964EAD5FAD6597BA0190E080E00E94AE
:1037F000382F9B01AC01C301B2010E94EA300E9444
:10380000D431980150E040E00E94B8300E94382F37
:103810002B013C01A5019401C701B6010E94EA30C9
:1038200027962CAD3DAD4EAD5FAD27970E94E93098
:103830006B017C016B96AEADBFAD6B97BD0190E0A7
:1038400080E00E94382F9B01AC01C701B6010E94A5
:103850005B319B01AC01C301B2010E94992F9B0116
:10386000AC0127966CAD7DAD8EAD9FAD27970E94C4
:10387000EA3090580E94CD31AB01BC01C1010E94D9
:1038800039050E943A2F6396EEADFFAD6397E65A75
:10389000FF4F3BCC27966CAD7DAD8EAD9FAD27978E
:1038A0000E943A2F6B017C01E0910B09F0910C0909
:1038B00061968EAD9FAD6197A5E0880F991FAA957F
:1038C000E1F7E80FF91F60817181828193810E9485
:1038D0003A2F9B01AC01C701B6010E945B316B011D
:1038E0007C0120E030E040E85FE30E94423218169D
:1038F00084F020E030E040E85FEBC701B6010E94B1
:10390000332F87FF06C0C12CD12C70E8E72E7FEB48
:10391000F72E212FB701A601C1010E94C8030E9402
:103920003A2F2F962CAD3DAD4EAD5FAD2F970E9437
:10393000992F6396EEADFFAD6397E25AFF4F20815A
:10394000318142815381EDCBC301B2010E943A2FF4
:103950006B017C01E0910B09F0910C0961968EAD31
:103960009FAD619765E0880F991F6A95E1F7E80FB1
:10397000F91F60857185828593850E943A2F9B018E
:10398000AC01C701B6010E945B316B017C0120E0F4
:1039900030E040E85FE30E944232181684F020E0F5
:1039A00030E040E85FEBC701B6010E94332F87FF8C
:1039B00006C0C12CD12C50E8E52E5FEBF52E212F4F
:1039C000B701A601C1010E94C8030E943A2F2F9699
:1039D0002CAD3DAD4EAD5FAD2F970E94992F0E944B
:1039E000CD3127966CAF7DAF8EAF9FAF279797FFF6
:1039F00007C090958095709561957F4F8F4F9F4F31
:103A00000E943A2F6B017C012091190130911A011B
:103A100040911B0150911C0167962CAF3DAF4EAFFA
:103A20005FAF67970E94332F18160CF454C0809133
:103A3000310190913201A0913301B09134012F9660
:103A40008CAF9DAFAEAFBFAF2F9720E030E44CE11D
:103A500056E42F966CAD7DAD8EAD9FAD2F970E9435
:103A60005B316B017C0127966CAD7DAD8EAD9FAD5A
:103A700027970E943A2F9B01AC01C701B6010E9413
:103A8000992F61960EAD1FAD619723E0000F111FB6
:103A90002A95E1F70954184FD801CD90DD90ED90AB
:103AA000FC900E94CD310E943A2FA70196010E94FE
:103AB000E930F80124813581468157810E94992F90
:103AC000A70196010E94EA30D8016D937D938D93F2
:103AD0009C93139728CB20912D0130912E0140917A
:103AE0002F01509130016D962CAF3DAF4EAF5FAFBF
:103AF0006D97C701B6010E9442324DE1642E41E04C
:103B0000742E10E000E087FD09C08091450190917E
:103B10004601A0914701B091480191CFD301A9512D
:103B2000B1402D01F30181909190A190B1903F019E
:103B3000A5019401C701B6010E94423287FD03C06E
:103B40000F5F1F4FEBCFF201EF5CFE4F2081318101
:103B5000428153812F962CAF3DAF4EAF5FAF2F9771
:103B6000A5019401C701B6010E94332F882309F4EF
:103B70006CCFA801440F551F440F551FAF965FAF80
:103B80004EAFAF97FA01E75EFE4F408051806280F2
:103B90007380A3019201C501B4010E94E930AB9684
:103BA0006CAF7DAF8EAF9FAFAB97A3019201C70102
:103BB000B6010E94E930AB962CAD3DAD4EAD5FAD88
:103BC000AB970E945B314B015C01AC019B010E94F1
:103BD000992F2B013C01AC019B01C501B4010E944E
:103BE000992F6B017C01AC019B010E94EA30E596A4
:103BF0006CAF7DAF8EAF9FAFE59720E030E040E443
:103C000050E4C301B2010E94992FE9966CAF7DAFD9
:103C10008EAF9FAFE9979B01AC01E5966CAD7DAD92
:103C20008EAD9FADE5970E94E93020E030E040E89E
:103C30005FE30E94EA30C258DF4F688379838A834A
:103C40009B83CE57D040A3019201C301B2010E94D1
:103C5000EA309B01AC01C701B6010E94E930A50121
:103C600094010E94EA30CE57DF4F688379838A83BC
:103C70009B83C258D040E5962CAD3DAD4EAD5FADB7
:103C8000E597E9966CAD7DAD8EAD9FADE9970E944D
:103C9000E930E5966CAF7DAF8EAF9FAFE597A3019E
:103CA0009201C701B6010E94E930E9966CAF7DAF81
:103CB0008EAF9FAFE997AF96EEADFFADAF97EF5CDC
:103CC000FE4F40805180628073800115110509F01C
:103CD000B3C0C0903101D0903201E0903301F09038
:103CE0003401A701960160913501709136018091F0
:103CF0003701909138010E94E9304B015C016796D1
:103D00002CAD3DAD4EAD5FAD679760911D017091DB
:103D10001E0180911F01909120010E94E9309B01BA
:103D2000AC01C501B4010E945B314B015C01A701EC
:103D300096016091390170913A0180913B01909117
:103D40003C010E94E9306B017C0167962CAD3DADD2
:103D50004EAD5FAD67976091210170912201809116
:103D60002301909124010E94E9309B01AC01C7011D
:103D7000B6010E945B316B017C01A3019201C25824
:103D8000DF4F688179818A819B81CE57D0400E9424
:103D9000992F2B013C012F962CAD3DAD4EAD5FAD63
:103DA0002F97E5966CAD7DAD8EAD9FADE5970E94EA
:103DB000992F9B01AC01C301B2010E94EA302B0193
:103DC0003C01CE57DF4F288139814A815B81C2583F
:103DD000D040AB966CAD7DAD8EAD9FADAB970E94E4
:103DE000992FA50194010E94992F9B01AC01C30159
:103DF000B2010E94EA304B015C01E9962CAD3DAD69
:103E00004EAD5FADE997AB966CAD7DAD8EAD9FAD20
:103E1000AB970E94992FA70196010E94992F9B01B1
:103E2000AC01C501B4010E94EA302F966CAF7DAFA2
:103E30008EAF9FAF2F9709CE0430110509F04BC00C
:103E4000C0904501D0904601E0904701F0904801B4
:103E500020913D0130913E0140913F015091400140
:103E6000C701B6010E94E9304B015C012091250198
:103E70003091260140912701509128016D966CAD3B
:103E80007DAD8EAD9FAD6D970E94E9309B01AC0179
:103E9000C501B4010E945B314B015C0120914101DD
:103EA000309142014091430150914401C701B60154
:103EB0000E94E9306B017C012091290130912A0197
:103EC00040912B0150912C016D966CAD7DAD8EAD66
:103ED0009FAD6D9748CFC8010E94D8044B015C018B
:103EE000C80101960E94D80446CFB7FEF2C0F7FE83
:103EF00094C0C501B4010E943A2F6B017C01E0918E
:103F00000B09F0910C0961968EAD9FAD619705E0AC
:103F1000880F991F0A95E1F7E80FF91F60897189E9
:103F2000828993890E943A2F9B01AC01C701B60197
:103F30000E945B316B017C0120E030E040E85FE3F0
:103F40000E944232181654F020E030E040E85FEB67
:103F5000C701B6010E94332F87FD0AC020E030E080
:103F6000A901C701B6010E94423218165CF006C0D2
:103F7000C12CD12CB0E8EB2EBFEBFB2EF7FAF0945E
:103F8000F7F8F094212FB701A601C1010E94C803E0
:103F90000E943A2F2F962CAD3DAD4EAD5FAD2F97C1
:103FA0000E94992F6396EEADFFAD6397EA59FF4FDC
:103FB00020813181428153810E94992F0E94CD310D
:103FC0006B017C0161960EAD1FAD619773E0000F30
:103FD000111F7A95E1F70955184FF80180809180FB
:103FE000A280B380C701B6010E943A2FA5019401B7
:103FF0000E94E930D80114962D913D914D915C912C
:1040000017970E94992FA50194010E94EA30F801A8
:10401000608371838283938386C8C114D104E104D1
:10402000F10481F2C501B4010E943A2F6B017C01B9
:10403000E0910B09F0910C0961968EAD9FAD6197EF
:10404000A5E0880F991FAA95E1F7E80FF91F60898D
:104050007189828993890E943A2F9B01AC01C70123
:10406000B6010E945B316B017C0120E030E040E84A
:104070005FE30E944232181654F020E030E040E83E
:104080005FEBC701B6010E94332F87FD0AC020E015
:1040900030E0A901C701B6010E94423218165CF057
:1040A00006C0C12CD12CE0E8EE2EEFEBFE2EF7FA85
:1040B000F094F7F8F094212FB701A601C1010E94F6
:1040C000C80390958095709561957F4F8F4F9F4F56
:1040D0005FCFC12CD12C760175CFC701B6010E94EC
:1040E0003A2F6B017C01E0910B09F0910C0961966C
:1040F0008EAD9FAD619765E0880F991F6A95E1F7D6
:10410000E80FF91F608D718D828D938D0E943A2F7B
:104110009B01AC01C701B6010E945B316B017C01C0
:1041200020E030E040E85FE30E944232181684F05D
:1041300020E030E040E85FEBC701B6010E94332F7A
:1041400087FF06C0C12CD12C50E8E52E5FEBF52E81
:10415000212FB701A601C1010E94C80361960EADCF
:104160001FAD619743E0000F111F4A95E1F7095613
:10417000184FD801CD90DD90ED90FC900E943A2F21
:104180002F962CAD3DAD4EAD5FAD2F970E94992F70
:104190006396EEADFFAD6397E659FF4F2081318105
:1041A000428153810E94992F7CCCEC969FADEC9775
:1041B000992311F40C944D14609170027091710266
:1041C0008091720290917302681979098A099B099A
:1041D0000E943A2F4B015C0120E030E0A9010E94CF
:1041E000332F87FDF4C180926C0290926D02A092F1
:1041F0006E02B0926F0260917402709175028091AC
:104200007602909177026C197D098E099F090E94B0
:104210003A2F6B017C0120E030E0A9010E94332F8E
:1042200087FDDAC1C0926802D0926902E0926A0208
:10423000F0926B02C0906002D0906102E090620246
:10424000F0906302A5E6CA16D104E104F1044CF132
:1042500020E030E0A90160916C0270916D028091C4
:104260006E0290916F020E94332F81111AC0C70114
:10427000B60195958795779567950E943A2F20E02E
:1042800030E040E05FE30E94EA300E94CD310E94BE
:104290003A2F60936C0270936D0280936E0290933C
:1042A0006F02C0906402D0906502E0906602F090C8
:1042B0006702B5E6CB16D104E104F1044CF120E02D
:1042C00030E0A901609168027091690280916A02F0
:1042D00090916B020E94332F81111AC0C701B60161
:1042E00095958795779567950E943A2F20E030E065
:1042F00040E05FE30E94EA300E94CD310E943A2FF5
:10430000609368027093690280936A0290936B02D3
:104310006091170170911801072E000C880B990B02
:104320000E943A2F6B017C0120916C0230916D024A
:1043300040916E0250916F020E94992F2B013C0117
:1043400040925C0250925D0260925E0270925F0247
:10435000209168023091690240916A0250916B028B
:10436000C701B6010E94992F4B015C01809258024F
:1043700090925902A0925A02B0925B0200911501EC
:1043800010911601B801012E000C880B990B0E94A8
:104390003A2F6B017C01AC019B01C301B2010E9469
:1043A000332F87FF1EC110922D0710922E071092F7
:1043B0002F0710923007A7019601C501B4010E9492
:1043C000332F87FF51C110922807109229071092AE
:1043D0002A0710922B0720E030E04FE753E460916A
:1043E0002D0770912E0780912F07909130070E9422
:1043F0004232181664F480E090E0AFE7B3E48093B3
:104400002D0790932E07A0932F07B093300720E03D
:1044100030E04FE753E460912807709129078091BD
:104420002A0790912B070E944232181664F480E00C
:1044300090E0AFE7B3E48093280790932907A09317
:104440002A07B0932B078FEE91E00E94820C81EF38
:1044500091E00E94820C60917802709179028091C3
:104460007A0290917B020E94920C81EF91E00E946F
:10447000820C60917C0270917D0280917E0290910D
:104480007F020E94920C81EF91E00E94820C609169
:104490006C0270916D0280916E0290916F0242E009
:1044A0000E94BE0C81EF91E00E94820C6091680234
:1044B0007091690280916A0290916B0242E00E94C1
:1044C000BE0C81EF91E00E94820C60915C027091C1
:1044D0005D0280915E0290915F0242E00E94BE0CFC
:1044E00081EF91E00E94820C609158027091590214
:1044F00080915A0290915B0242E00E94BE0C81EFD3
:1045000091E00E94820C60912D0770912E0780919E
:104510002F079091300742E00E94BE0C81EF91E09E
:104520000E94820C609128077091290780912A07C8
:1045300090912B0742E00E94BE0C80EE91E00E9419
:10454000310C8091780290917902A0917A02B09119
:104550007B028093700290937102A0937202B093D9
:10456000730280917C0290917D02A0917E02B091B5
:104570007F028093740290937502A0937602B093A9
:10458000770260916C0270916D0280916E02909141
:104590006F020E94CD31609360027093610280933C
:1045A0006202909363026091680270916902809147
:1045B0006A0290916B020E94CD3160936402709305
:1045C000650280936602909367020C944D14B7FACB
:1045D000B094B7F8B09407CEF7FAF094F7F8F094E7
:1045E00021CEA7019601C301B2010E94E9302B013F
:1045F0003C016091130170911401601B710B072E37
:10460000000C880B990B0E943A2F9B01AC01C3014F
:10461000B2010E945B3120E030E04FE753E40E949A
:10462000992F2B013C0120E030E0A9010E94423289
:1046300020E030E040E05FE387FD11C0C301B2013C
:104640000E94EA300E94CD310E943A2F60932D07DC
:1046500070932E0780932F0790933007ACCEC30141
:10466000B2010E94E930EECFA7019601C501B40165
:104670000E94E9306B017C0160911301709114017B
:10468000601B710B072E000C880B990B0E943A2FB0
:104690009B01AC01C701B6010E945B3120E030E014
:1046A0004FE753E40E94992F6B017C0120E030E03A
:1046B000A9010E94423220E030E040E05FE387FD44
:1046C00011C0C701B6010E94EA300E94CD310E949C
:1046D0003A2F609328077093290780932A079093B5
:1046E0002B0779CEC701B6010E94E930EECF1F92A9
:1046F0000F920FB60F9211248F939F938091E10038
:104700009091E100937F9093E10083FF0FC010929E
:10471000E90091E09093EB001092EC0092E390930B
:10472000ED001092190798E09093F00082FF22C0EC
:1047300093E09093E9009091F200992319F09AE3A5
:104740009093E80090911607992341F090911607F5
:10475000915090931607911101C05D9890911507A3
:10476000992341F09091150791509093150791115D
:1047700001C0289884FF18C08091E2008E7E81607D
:104780008093E2008091E1008F7E8093E100809130
:1047900017078E7E8061809317079F918F910F90EE
:1047A0000FBE0F901F90189580FFF7CF8091E20009
:1047B0008E7E80618093E2008091E1008E7E809306
:1047C000E100809117078E7E8160E5CF1F920F92E6
:1047D0000FB60F921124CF92DF92EF92FF920F93B8
:1047E0001F932F933F934F935F936F937F938F9379
:1047F0009F93AF93BF93EF93FF93CF93DF93CDB787
:10480000DEB76C97DEBFCDBF1092E9008091E80063
:1048100083FF25C068E0CE0145960E94F20682EF34
:104820008093E8008D8987FF39C09091E80090FF60
:10483000FCCF982F907609F034C19E894F89588D0E
:104840002F89F88C911131C0803861F5809118075B
:104850008093F1001092F1008EEF8093E8006C9647
:104860000FB6F894DEBF0FBECDBFDF91CF91FF91A1
:10487000EF91BF91AF919F918F917F916F915F91D8
:104880004F913F912F911F910F91FF90EF90DF90EB
:10489000CF900F900FBE0F901F9018959EEF9093A2
:1048A000E800C7CF1092F100D5CF913059F48111B3
:1048B000D3CF4130510581F6809118078D7F8093C9
:1048C0001807CACF933049F48111C6CF4130510542
:1048D00019F6809118078260F2CF953041F48091EB
:1048E000E80080FFFCCF20682093E300B5CF96302E
:1048F00009F0A9C00B8D1C8D22E01092E9001092E6
:10490000130710921207F2122EC010921107109284
:1049100010070E9446071F8299E09983FA8291E06E
:104920009E8390EA98879AEF998720911207309199
:104930001307275F3F4F3C832B838D831092E90041
:10494000109213071092120710931107009310078B
:1049500049E050E0BE016F5F7F4F80E00E94880613
:104960000E94460779CF10931107009310070E9409
:104970003207DC0112960D911C910115110509F405
:104980004BC1D801ED91FC910480F581E02DBE0171
:104990006B5E7F4FC8010995009709F038C1F80197
:1049A00000851185EACFF3E0FF120EC08F898823BE
:1049B00009F440C0823061F440E86BE085EB91E09F
:1049C0000E945506811148CF81E28093EB0047CFCA
:1049D000813029F440E86BE089EA91E0F1CF83303F
:1049E00099F70E943207DC011296ED90FC908E013F
:1049F0000F5F1F4F6801E114F10479F0D701ED91C9
:104A0000FC910680F781E02DB801C7010995080FD8
:104A1000111DF701E084F184EECFD8011C92F6015C
:104A200001900020E9F73197BF016C197D0940E042
:104A3000C601C6CF63E971E0FB01449150E080E814
:104A40000E94880609CF973009F4BECF983021F430
:104A500081E08093F10000CF993009F0FDCE8370A2
:104A600009F0B2CFE1E0F1E081E031E096E321919D
:104A7000222371F08093E9003093EB00DF0111975E
:104A80002C912093EC009093ED008F5F873079F7A5
:104A90008EE78093EA001092EA008F8980931907CD
:104AA000DBCE8B8D9C8D1092E90010921307109233
:104AB00012079093110780931007898D81118CC084
:104AC0008E899D89913A49F4813209F07DCF47E082
:104AD00050E06BE071E080E0B3CF913209F074CF29
:104AE000833269F48F89988DB0E0A0E0809307014C
:104AF00090930801A0930901B0930A01ADCE8032D2
:104B000039F467E070E08BE091E00E94FF06A4CEEC
:104B1000823209F0A1CE8F8980931201EEEFFFE778
:104B2000859194918B3F9C4D51F1E0E0F8E08091AC
:104B30000B0190910C01A0910D01B0910E01803BF1
:104B40009440A105B105F1F48091120180FD1AC0D5
:104B5000EE3F8AE0F80789F587E797E7918380833E
:104B6000809160008093140788E19BE00FB6F89471
:104B7000A895809360000FBE909360006DCEEEEF1D
:104B8000FAE0D5CF808191818737974709F064CECD
:104B9000A8958091600088618093600080911407DF
:104BA00080936000EE3F2AE0F20789F08091FE0AD0
:104BB0009091FF0A918380834FCE808191818737C6
:104BC000980751F29093FF0A8093FE0AC5CF109286
:104BD000FF0A1092FE0A40CE0E943207DC011296B4
:104BE0000D911C910115110509F4EECED801ED913E
:104BF000FC910190F081E02DBE016B5E7F4FC801FA
:104C00000995811129CEF80100851185EBCF181681
:104C100019060CF421CED8CEF1E0FF12C4CE67E91C
:104C200071E00ACF1F920F920FB60F9211242F93AB
:104C30003F938F939F93AF93BF938091FC06909186
:104C4000FD06A091FE06B091FF063091FB0623E021
:104C5000230F2D3758F50196A11DB11D2093FB069A
:104C60008093FC069093FD06A093FE06B093FF068A
:104C70008091000790910107A0910207B09103076E
:104C80000196A11DB11D8093000790930107A09389
:104C90000207B0930307BF91AF919F918F913F910E
:104CA0002F910F900FBE0F901F90189526E8230F9D
:104CB0000296A11DB11DD2CFFF920F931F93CF93E8
:104CC000DF9310924A071092490788EE93E0A0E024
:104CD000B0E080934B0790934C07A0934D07B0939F
:104CE0004E0782ED91E090934807809347078FEF3E
:104CF0009FEF90935407809353071092B707109239
:104D0000B8071092B9071092BA071092BB07109219
:104D1000BC071092BD071092BE071092BF071092F9
:104D2000C0071092C1071092C2071092C3071092D9
:104D3000C4071092C5071092C6071092A7071092D9
:104D4000A8071092A9071092AA071092AB07109219
:104D5000AC071092AD071092AE071092AF071092F9
:104D6000B0071092B1071092B2071092B3071092D9
:104D7000B4071092B5071092B607109297071092D9
:104D800098071092990710929A0710929B07109219
:104D90009C0710929D0710929E0710929F071092F9
:104DA000A0071092A1071092A2071092A3071092D9
:104DB000A4071092A5071092A6070E94760A1092E7
:104DC0007208109271081092750810927A08109269
:104DD00079088FEF93E090937C0880937B08109282
:104DE0007E0810927D089093800880937F0810922F
:104DF000820810928108909384088093830810920F
:104E000086081092850890938808809387081092EE
:104E10008A081092890890938C0880938B081092CE
:104E20008E0810928D089093900880938F081092AE
:104E3000920810929108909394088093930810928E
:104E4000960810929508909398088093970880E7A9
:104E5000E2E5F1E0ABE9B8E001900D928A95E1F767
:104E600081E08093990833E13093740822E0209325
:104E70007608C3E0C09377081092780865E06093E5
:104E8000C7078093C80799E09093C90774E07093AF
:104E9000CA07B1EAB093CB078093CC079093CD07B4
:104EA0008093CE0745E84093CF078093D007609367
:104EB000D1079093D20749E14093D3078093D40759
:104EC00049E24093D5073093D607A5E1A093D707D1
:104ED0001092D807F5E2F093D9078093DA0755E7E7
:104EE0005093DB078093DC0745E94093DD0730935F
:104EF000DE0735E53093DF071092E007E5E6E09343
:104F0000E1071092E20731E83093E3072093E407CA
:104F10005093E5078093E6074093E7076093E8071F
:104F20003093E907C093EA076093EB078093EC079F
:104F30009093ED0769E3F62EF092EE07A093EF074A
:104F40001092F007F093F10707E00093F20715E3E2
:104F50001093F3071092F407D6E4D093F507CBE350
:104F6000C093F6078093F707E093F80764E1609336
:104F7000F9075093FA077093FB074093FC0780935F
:104F8000FD073093FE072093FF0790930008F092EF
:104F90000108A093020810920308F09304080093FC
:104FA00005081093060810920708D0930808C093CC
:104FB000090880930A08E0930B0860930C0850934B
:104FC0000D0870930E0840930F08809310083093DB
:104FD000110820931208909313088093140866E137
:104FE000609315088093160880E88093170886E27E
:104FF000809318088FEF809319088FE780931A0821
:1050000050931B0880E180931C0840931D08209357
:105010001E08B0931F08109220089093210880E387
:10502000809322089093230881E38093240830938F
:1050300025082093260880EC8093270881E690E0DD
:105040000E94DB328C0181E6E7ECF7E0D8010190A9
:105050000D928A95E1F78BE090E00E94DB32EC0143
:10506000198218821B830A8381EC91E09D838C83D3
:1050700081E690E09F838E838BEC94E0998788870C
:105080001A860E949B0BDC01AF5DBB4FED91FC913A
:105090001197309709F06EC0CD93DC93FC01ED5D64
:1050A000FB4F808191812E813F81820F931F9183DD
:1050B000808328853985820F931F91838083909107
:1050C0007408892F869586958695977009F05AC041
:1050D00080937508C09175088C2F90E00E94DB3298
:1050E000909372088093710881E0909176089111F5
:1050F00001C080E0CC5F8C0F80939A0810925E080C
:1051000010925D081092600810925F081092620879
:105110001092610810926408109263081092660859
:1051200010926508109268081092670810926A0839
:105130001092690810926C0810926B088FEF9FEF25
:1051400090936E0880936D089093700880936F0819
:1051500090E080E02091750828171906A9F0A4F0C6
:10516000E0917108F0917208E80FF91F1082019622
:10517000F1CFF9012081318121153105D1F7D1839A
:10518000C0838CCF8F5FA4CFDF91CF911F910F9100
:10519000FF900895CF93DF93CDB7DEB7CC58D109F8
:1051A0000FB6F894DEBF0FBECDBF789484B5826091
:1051B00084BD84B5816084BD85B5826085BD85B5BB
:1051C000816085BD80916E00816080936E00109239
:1051D00081008091810082608093810080918100B4
:1051E0008160809381008091800081608093800045
:1051F0008091910082608093910080919100816004
:1052000080939100809190008160809390008091C4
:10521000C10084608093C1008091C100826080934E
:10522000C1008091C10081608093C1008091C30062
:1052300081608093C3008091C00082608093C00031
:105240008091C20081608093C20080917A00846066
:1052500080937A0080917A00826080937A008091B6
:105260007A00816080937A0080917A0080688093D0
:105270007A00109219071092180710921707809160
:10528000D70081608093D70080EA8093D80089B5E9
:10529000806189BD89B5826089BD09B400FEFDCFFA
:1052A00061E070E080E090E00E9493098091D80076
:1052B0008F7C80618093D8008091E000807F809314
:1052C000E0008091E1008E7E8093E1008DE080938C
:1052D000E200559A209A5D98289861E086E00E9445
:1052E0009A0861E089E00E949A0861E085E10E94E5
:1052F0009A0862E08AE00E949A0862E08FE00E94C9
:105300009A0820E030E830937A08209379088FEFEC
:105310009FE790937C0880937B0830937E082093CE
:105320007D089093800880937F0881E080937308C4
:105330000E949A0DE7EBF7E087EA97E007E917E0AC
:1053400040E652E56BEC7CE31082118212821382FC
:105350004483558366837783DC011D921D921D92E1
:105360001C92139714964D935D936D937C931797AE
:10537000D8011D921D921D921C92139714964D9365
:105380005D936D937C93179738960896085F1F4F2F
:10539000B7E0EF3CFB07C1F680E7E2E5F1E0DE01B4
:1053A000119601900D928A95E1F780E090E0A0E8D7
:1053B000BEE38DA79EA7AFA7B8ABA9968CAF9DAF54
:1053C000AEAFBFAFA99780E7FE013196ABE9B8E079
:1053D00001900D928A95E1F78FEF9FEF909354071C
:1053E0008093530710921A0710921B0710921C0704
:1053F00010921D0710923E0710923F07109240072F
:10540000109241071092390710923A0710923B0709
:1054100010923C0711E080E0282E80E0382E8AE0D0
:105420000E9443087C0190932507809324078FE016
:105430000E944308EF2811F0892BA9F480912207DC
:1054400090912307019709F0D0C00E94760A22E0CC
:1054500030E0309323072093220768EC70E080E06F
:1054600090E00E9493090E94760AC0901E07D09097
:105470001F07E0902007F0902107C616D706E80620
:10548000F90608F05EC08091220790912307181654
:1054900019060CF056C08130910509F0BBC083EFAE
:1054A00091E00E94840C90E080E00E94EB0E64E6A4
:1054B00070E080E090E00E94930980E197E20E9412
:1054C000EB0E64E670E080E090E00E94930980E2D9
:1054D0009EE40E94EB0E64E670E080E090E00E94A3
:1054E000930980E395E70E94EB0E64E670E080E0AC
:1054F00090E00E94930980EF98ED0E94EB0E64E625
:1055000070E080E090E00E94930980EE91EB0E94B1
:10551000EB0E64E670E080E090E00E94930980ED7D
:105520009AE80E94EB0E64E670E080E090E00E9452
:10553000930990E080E00E94EB0E109223071092F6
:10554000220787E497E00E94E707181619060CF077
:105550006AC1CD57DF4F19821882C358D040CB574C
:10556000DF4F19821882C558D040C957DF4F1982C2
:105570001882C758D040CE018D579F4F0E949F0F71
:105580000E94820A97FD98C08A30910509F494C060
:1055900089831A82C957DF4FE880F980C758D04005
:1055A0005FEFE51AF50AB701CE018D579F4F0E94B4
:1055B000650F882329F3CD57DF4F28813981C358E0
:1055C000D040C957DF4F88819981C758D040BE016C
:1055D0006F5F7F4F820F931F0E94DA34C957DF4FEE
:1055E000F982E882C758D040CBCF41E050E05093D9
:1055F0002307409322070E94760A68517C4F8F4F01
:105600009F4F60931E0770931F078093200790930E
:10561000210723CF029709F090CF89EF91E00E94F4
:10562000840C90E080E00E94F50E64E670E080E07B
:1056300090E00E94930980E197E20E94F50E64E6F3
:1056400070E080E090E00E94930980E29EE40E9476
:10565000F50E64E670E080E090E00E94930980E33C
:1056600095E70E94F50E64E670E080E090E00E940D
:10567000930980EF98ED0E94F50E64E670E080E0FB
:1056800090E00E94930980EE91EB0E94F50E64E693
:1056900070E080E090E00E94930980ED9AE80E941B
:1056A000F50E64E670E080E090E00E94930990E0DF
:1056B00080E00E94F50E41CF21E030E050E040E074
:1056C000BE016D577F4FCE0101960E94B70F6FEF5D
:1056D00071E0CE0101960E94500FF82ECE01019686
:1056E0000E941D10FF2009F440C06CE2CE018D57CE
:1056F0009F4F0E94370F7C01C957DF4FC880D98068
:10570000C758D0409C0141E050E0BE016D577F4F2B
:10571000CE018F589F4F0E94B70FA7014F5F5F4F79
:105720009601BE016D577F4FCE0101960E94B70FC3
:10573000CE018F589F4F0E942C0F709336076093B5
:105740003507CE0101960E942C0F709338076093A5
:10575000370710933D07CE0101960E941D10CE0120
:105760008F589F4F0E941D1059C021E030E050E03B
:1057700040E0BE016D577F4FCE0101960E94B70FEA
:1057800061E072E0CE0101960E94500FF82ECE012A
:1057900001960E941D10FF2009F4D6C086E592E014
:1057A0000E94820C81EF91E00E94820C609126079A
:1057B00070912707072E000C880B990B0E94920C02
:1057C00081EF91E00E94820C6091170170911801A5
:1057D000072E000C880B990B0E94920C81EF91E030
:1057E0000E94820C6091150170911601072E000C29
:1057F000880B990B0E94920C81EF91E00E94820C21
:105800006091130170911401072E000C880B990B05
:105810000E94920C80EE91E00E94310CCE018D57D7
:105820009F4F0E941D1080914607811196C20E94D1
:10583000760A6B017C0180913E0790913F07A09111
:105840004007B0914107C816D906EA06FB0608F4DE
:105850003CC280913D07882361F08091350790918B
:1058600036070E94EB0E80913707909138070E940F
:10587000F50E80902D0790902E07A0902F07B090E6
:10588000300720E030E0A9016091310770913207C4
:1058900080913307909134070E94332F81111FC0EC
:1058A00020E030E0A901C501B4010E94423218167F
:1058B000B4F480912C07811112C00E94760A9B01DA
:1058C000AC012C5E3F4F4F4F5F4FC757DF4F2883D0
:1058D00039834A835B83C958D04010932C070E94B8
:1058E000760AC757DF4F288139814A815B81C958C1
:1058F000D0406217730784079507C0F420E030E0BA
:10590000A901C501B4010E94332F81119FC120E07C
:1059100030E0A901609128077091290780912A073A
:1059200090912B070E94332F811190C180912607FF
:1059300090912707009709F4CFC18130910509F0B4
:10594000F8C170E060E0DAC121E030E050E040E012
:10595000BE016D577F4FCE0101960E94B70F63E0E5
:1059600072E0CE0101960E94500FF82ECE010196F2
:105970000E941D10FF2009F489C06CE2CE018D57F2
:105980009F4F0E94370F5C016EE2CE018D579F4FF3
:105990000E94370F6C016AE3CE018D579F4F0E9422
:1059A000370F7C01C957DF4F88809980C758D04096
:1059B000950141E050E0BE016D577F4FCE01835805
:1059C0009F4F0E94B70FA5014F5F5F4F9601BE0129
:1059D0006D577F4FCE0189589F4F0E94B70FA60188
:1059E0004F5F5F4F9701BE016D577F4FCE018F58BC
:1059F0009F4F0E94B70FA7014F5F5F4F9401BE01F9
:105A00006D577F4FCE0101960E94B70FCE0183588C
:105A10009F4F0E942C0F7093270760932607CE019B
:105A200089589F4F0E942C0F7093180160931701A3
:105A3000CE018F589F4F0E942C0F6B01709316015F
:105A400060931501CE0101960E942C0F70931401F2
:105A50006093130185E092E00E94820CB601DD0C98
:105A6000880B990B0E94920CCE0101960E941D108A
:105A7000CE018F589F4F0E941D10CE0189589F4F15
:105A80000E941D10CE0183589F4F6CCE21E030E064
:105A900050E040E0BE016D577F4FCE0101960E945D
:105AA000B70F67E072E0CE0101960E94500FF82E0A
:105AB000CE0101960E941D10FF2019F0109246079A
:105AC000ADCE21E030E050E040E0BE016D577F4FA9
:105AD000CE0101960E94B70F67EF71E0CE010196EB
